:020000040800F2
:10000000000A0020CD010008D1010008D30100083A
:10001000D5010008D7010008D90100080000000040
:10002000000000000000000000000000DB010008EC
:10003000DD01000800000000430500082904000855
:10004000E3010008E3010008E3010008E301000800
:10005000E3010008E3010008E3010008E3010008F0
:10006000E3010008E3010008E3010008E3010008E0
:10007000E3010008E3010008E3010008E3010008D0
:10008000E3010008E3010008E3010008E3010008C0
:10009000E3010008E3010008E3010008E3010008B0
:1000A000E3010008E3010008E3010008E3010008A0
:1000B000E3010008E3010008E3010008E301000890
:1000C000E3010008E3010008E3010008E301000880
:1000D000E3010008E3010008E3010008E301000870
:1000E000E3010008E3010008E3010008E301000860
:1000F000E3010008E3010008E3010008E301000850
:10010000E3010008E3010008E3010008E30100083F
:10011000E3010008E3010008E3010008E30100082F
:10012000E3010008E3010008E3010008E30100081F
:1001300000F002F800F03AF80AA090E8000C8244BF
:100140008344AAF10107DA4501D100F02FF8AFF29C
:10015000090EBAE80F0013F0010F18BFFB1A43F0A5
:1001600001031847D4040000F4040000103A24BF2F
:1001700078C878C1FAD8520724BF30C830C144BF0C
:1001800004680C607047000000230024002500264E
:10019000103A28BF78C1FBD8520728BF30C148BFEA
:1001A0000B6070471FB51FBD10B510BD00F00DFAF4
:1001B0001146FFF7F7FF00F076F800F02BFA03B4D2
:1001C000FFF7F2FF03BC00F02FFA000008480047D9
:1001D000FEE7FEE7FEE7FEE7FEE7FEE7FEE7FEE7F7
:1001E000FEE7FEE703480449044A054B7047000058
:1001F0003101000800040020000A00200006002051
:10020000000600203448806940F0040032498861CB
:100210000846806940F0200088613048006820F07E
:100220000F002E4908600846006840F0030008608F
:100230002A480830006840F4807028490831086076
:100240002748006820F47060254908600846006867
:1002500040F44070086022480C30006840F0040010
:100260001F490C3108600846006880F004000860EF
:1002700070470AE0C82000F033F919480C300068D4
:1002800080F0040016490C310860F3E70AE06420AE
:1002900000F026F911480830006880F480700F499A
:1002A00008310860F3E710B500F080F80D4A00212E
:1002B000AFF2270000F097F80B4A0021AFF24D0093
:1002C00000F091F8052000F0EAF8FFF79BFF00F03E
:1002D00029F9002010BD0000001002400408014070
:1002E00000140140180100201802002030B5034618
:1002F00010464FF080740460041F204623606FF0A6
:100300000105041F204625604FF01235041F2046CA
:1003100025604FF00335041F204625604FF002355D
:10032000041F204625606D10041F20462560041F11
:10033000204621604FF01135041F204625604FF004
:100340001035041F204625604FF00935041F204654
:1003500025604FF00835041F204625604FF0073513
:10036000041F204625604FF00635041F20462560F7
:100370004FF00535041F204625604FF00435041F5B
:100380002046256030BD00BF00BFFEE710B500F07D
:10039000C5F85A4A0021AFF21100FFF7A7FF5849EC
:1003A00008600120087100F0BBF810BD10B500F026
:1003B000B5F8002408E00020514941F8340001EB71
:1003C000C4010871601CC4B2102CF4DBFFF7DEFF1F
:1003D0004B484C4908604C49086000F0A1F810BD3A
:1003E0000160027170472DE9F04105460E4617463F
:1003F000012400F093F801E0601CC4B2404850F8BA
:1004000034000028F8D13A4631462846FFF76EFFFF
:1004100080463B4901EBC40000224146FFF7E0FF64
:1004200000F07EF8BDE8F08110B500F077F83748AD
:100430000068401E3549086048BB05200860324806
:1004400000683049086000F0AEF831480078401C80
:100450002F4908700AE02E480078401C2C4908708B
:1004600008460078102801DB00200870244828493D
:10047000097850F831000028EDD021482449097846
:1004800000EBC10020490860052020490860214890
:100490000068401C1F49086000F042F810BD10B50C
:1004A000044600F03BF800201A490860052017496F
:1004B00008604FF47A7104FB01F0401E4FF0E02118
:1004C000486100201449096808704FF0E0218861F4
:1004D0000320086100F024F810BD0E480068704742
:1004E00001B5FFF7FAFF009A811804E0FFF7F5FF66
:1004F000884200D900E0F9E700BF08BD980300205A
:100500001C02002000000020040000201400002035
:1005100008000020100000201800002072B670476C
:1005200062B6704772B623484FF0FF0101704FF07A
:10053000000484F30988204C4FF08055256062B692
:10054000FEE772B6EFF3098030B1A0F1200080E839
:10055000F00F1A4909680860184819490A680260CA
:100560001068046800F10400056800F104000668E2
:1005700000F10400076800F10400D0F8008000F1E9
:100580000400D0F8009000F10400D0F800A000F1C1
:100590000400D0F800B000F1040080F309884EF0A8
:1005A000040E62B6704730B4034C4FF0805525609E
:1005B00030BC704722ED00E004ED00E000000020B8
:1005C00004000020704770477047754600F028F817
:1005D000AE4605006946534620F00700854618B030
:1005E00020B5FFF7FFFDBDE820404FF000064FF0BB
:1005F00000074FF000084FF0000B21F00701AC4658
:10060000ACE8C009ACE8C009ACE8C009ACE8C00976
:100610008D4670470446AFF300802046FFF7CFFDBC
:10062000004870479C03002001491820ABBEFEE73C
:100630002600020070470000580600080000002055
:100640001C0000006C010008740600081C0000205B
:10065000E40900008801000800000000000000001C
:10066000000000000000000000000000000000008A
:0406700023ED00E096
:0400000508000131BD
:00000001FF
